{
  "contractName": "Lottery",
  "abi": [
    {
      "inputs": [],
      "payable": false,
      "stateMutability": "nonpayable",
      "type": "constructor"
    },
    {
      "anonymous": false,
      "inputs": [
        {
          "indexed": false,
          "internalType": "uint256",
          "name": "index",
          "type": "uint256"
        },
        {
          "indexed": false,
          "internalType": "address",
          "name": "bettor",
          "type": "address"
        },
        {
          "indexed": false,
          "internalType": "uint256",
          "name": "amount",
          "type": "uint256"
        },
        {
          "indexed": false,
          "internalType": "bytes1",
          "name": "challenges",
          "type": "bytes1"
        },
        {
          "indexed": false,
          "internalType": "uint256",
          "name": "answerBlockNumber",
          "type": "uint256"
        }
      ],
      "name": "BET",
      "type": "event"
    },
    {
      "anonymous": false,
      "inputs": [
        {
          "indexed": false,
          "internalType": "uint256",
          "name": "index",
          "type": "uint256"
        },
        {
          "indexed": false,
          "internalType": "address",
          "name": "bettor",
          "type": "address"
        },
        {
          "indexed": false,
          "internalType": "uint256",
          "name": "amount",
          "type": "uint256"
        },
        {
          "indexed": false,
          "internalType": "bytes1",
          "name": "challenges",
          "type": "bytes1"
        },
        {
          "indexed": false,
          "internalType": "bytes1",
          "name": "answer",
          "type": "bytes1"
        },
        {
          "indexed": false,
          "internalType": "uint256",
          "name": "answerBlockNumber",
          "type": "uint256"
        }
      ],
      "name": "DRAW",
      "type": "event"
    },
    {
      "anonymous": false,
      "inputs": [
        {
          "indexed": false,
          "internalType": "uint256",
          "name": "index",
          "type": "uint256"
        },
        {
          "indexed": false,
          "internalType": "address",
          "name": "bettor",
          "type": "address"
        },
        {
          "indexed": false,
          "internalType": "uint256",
          "name": "amount",
          "type": "uint256"
        },
        {
          "indexed": false,
          "internalType": "bytes1",
          "name": "challenges",
          "type": "bytes1"
        },
        {
          "indexed": false,
          "internalType": "bytes1",
          "name": "answer",
          "type": "bytes1"
        },
        {
          "indexed": false,
          "internalType": "uint256",
          "name": "answerBlockNumber",
          "type": "uint256"
        }
      ],
      "name": "FAIL",
      "type": "event"
    },
    {
      "anonymous": false,
      "inputs": [
        {
          "indexed": false,
          "internalType": "string",
          "name": "message",
          "type": "string"
        }
      ],
      "name": "NOT_REVEALED",
      "type": "event"
    },
    {
      "anonymous": false,
      "inputs": [
        {
          "indexed": false,
          "internalType": "uint256",
          "name": "index",
          "type": "uint256"
        },
        {
          "indexed": false,
          "internalType": "address",
          "name": "bettor",
          "type": "address"
        },
        {
          "indexed": false,
          "internalType": "uint256",
          "name": "amount",
          "type": "uint256"
        },
        {
          "indexed": false,
          "internalType": "bytes1",
          "name": "challenges",
          "type": "bytes1"
        },
        {
          "indexed": false,
          "internalType": "uint256",
          "name": "answerBlockNumber",
          "type": "uint256"
        }
      ],
      "name": "REFUND",
      "type": "event"
    },
    {
      "anonymous": false,
      "inputs": [
        {
          "indexed": false,
          "internalType": "uint256",
          "name": "index",
          "type": "uint256"
        },
        {
          "indexed": false,
          "internalType": "address",
          "name": "bettor",
          "type": "address"
        },
        {
          "indexed": false,
          "internalType": "uint256",
          "name": "amount",
          "type": "uint256"
        },
        {
          "indexed": false,
          "internalType": "bytes1",
          "name": "challenges",
          "type": "bytes1"
        },
        {
          "indexed": false,
          "internalType": "bytes1",
          "name": "answer",
          "type": "bytes1"
        },
        {
          "indexed": false,
          "internalType": "uint256",
          "name": "answerBlockNumber",
          "type": "uint256"
        }
      ],
      "name": "WIN",
      "type": "event"
    },
    {
      "constant": true,
      "inputs": [],
      "name": "answerForTest",
      "outputs": [
        {
          "internalType": "bytes32",
          "name": "",
          "type": "bytes32"
        }
      ],
      "payable": false,
      "stateMutability": "view",
      "type": "function"
    },
    {
      "constant": true,
      "inputs": [],
      "name": "owner",
      "outputs": [
        {
          "internalType": "address payable",
          "name": "",
          "type": "address"
        }
      ],
      "payable": false,
      "stateMutability": "view",
      "type": "function"
    },
    {
      "constant": true,
      "inputs": [],
      "name": "getPot",
      "outputs": [
        {
          "internalType": "uint256",
          "name": "value",
          "type": "uint256"
        }
      ],
      "payable": false,
      "stateMutability": "view",
      "type": "function"
    },
    {
      "constant": false,
      "inputs": [
        {
          "internalType": "bytes1",
          "name": "challenges",
          "type": "bytes1"
        }
      ],
      "name": "betAndDistribute",
      "outputs": [
        {
          "internalType": "bool",
          "name": "result",
          "type": "bool"
        }
      ],
      "payable": true,
      "stateMutability": "payable",
      "type": "function"
    },
    {
      "constant": false,
      "inputs": [
        {
          "internalType": "bytes1",
          "name": "challenges",
          "type": "bytes1"
        }
      ],
      "name": "bet",
      "outputs": [
        {
          "internalType": "bool",
          "name": "result",
          "type": "bool"
        }
      ],
      "payable": true,
      "stateMutability": "payable",
      "type": "function"
    },
    {
      "constant": false,
      "inputs": [],
      "name": "distribute",
      "outputs": [],
      "payable": false,
      "stateMutability": "nonpayable",
      "type": "function"
    },
    {
      "constant": false,
      "inputs": [
        {
          "internalType": "bytes32",
          "name": "answer",
          "type": "bytes32"
        }
      ],
      "name": "setAnswerForTest",
      "outputs": [
        {
          "internalType": "bool",
          "name": "result",
          "type": "bool"
        }
      ],
      "payable": false,
      "stateMutability": "nonpayable",
      "type": "function"
    },
    {
      "constant": true,
      "inputs": [
        {
          "internalType": "bytes1",
          "name": "challenges",
          "type": "bytes1"
        },
        {
          "internalType": "bytes32",
          "name": "answer",
          "type": "bytes32"
        }
      ],
      "name": "isMatch",
      "outputs": [
        {
          "internalType": "enum Lottery.BettingResult",
          "name": "",
          "type": "uint8"
        }
      ],
      "payable": false,
      "stateMutability": "pure",
      "type": "function"
    },
    {
      "constant": true,
      "inputs": [
        {
          "internalType": "uint256",
          "name": "index",
          "type": "uint256"
        }
      ],
      "name": "getBetInfo",
      "outputs": [
        {
          "internalType": "uint256",
          "name": "answerBlockNumber",
          "type": "uint256"
        },
        {
          "internalType": "address",
          "name": "bettor",
          "type": "address"
        },
        {
          "internalType": "bytes1",
          "name": "challenges",
          "type": "bytes1"
        }
      ],
      "payable": false,
      "stateMutability": "view",
      "type": "function"
    }
  ],
  "bytecode": "0x60806040526000600560006101000a81548160ff02191690831515021790555034801561002b57600080fd5b5033600360006101000a81548173ffffffffffffffffffffffffffffffffffffffff021916908373ffffffffffffffffffffffffffffffffffffffff1602179055506115768061007c6000396000f3fe6080604052600436106100865760003560e01c80638da5cb5b116100595780638da5cb5b1461020157806399a167d714610258578063e16ea857146102e1578063e4fc6b6d14610349578063f4b46f5b1461036057610086565b8063403c9fa81461008b5780637009fa36146100b657806379141f801461010957806384f7e4f0146101d6575b600080fd5b34801561009757600080fd5b506100a06103c8565b6040518082815260200191505060405180910390f35b3480156100c257600080fd5b506100ef600480360360208110156100d957600080fd5b81019080803590602001909291905050506103d2565b604051808215151515815260200191505060405180910390f35b34801561011557600080fd5b506101426004803603602081101561012c57600080fd5b810190808035906020019092919050505061048a565b604051808481526020018373ffffffffffffffffffffffffffffffffffffffff1673ffffffffffffffffffffffffffffffffffffffff168152602001827effffffffffffffffffffffffffffffffffffffffffffffffffffffffffffff19167effffffffffffffffffffffffffffffffffffffffffffffffffffffffffffff19168152602001935050505060405180910390f35b3480156101e257600080fd5b506101eb61058f565b6040518082815260200191505060405180910390f35b34801561020d57600080fd5b50610216610595565b604051808273ffffffffffffffffffffffffffffffffffffffff1673ffffffffffffffffffffffffffffffffffffffff16815260200191505060405180910390f35b34801561026457600080fd5b506102bd6004803603604081101561027b57600080fd5b8101908080357effffffffffffffffffffffffffffffffffffffffffffffffffffffffffffff19169060200190929190803590602001909291905050506105bb565b604051808260028111156102cd57fe5b60ff16815260200191505060405180910390f35b61032f600480360360208110156102f757600080fd5b8101908080357effffffffffffffffffffffffffffffffffffffffffffffffffffffffffffff19169060200190929190505050610896565b604051808215151515815260200191505060405180910390f35b34801561035557600080fd5b5061035e6108b3565b005b6103ae6004803603602081101561037657600080fd5b8101908080357effffffffffffffffffffffffffffffffffffffffffffffffffffffffffffff19169060200190929190505050611003565b604051808215151515815260200191505060405180910390f35b6000600454905090565b6000600360009054906101000a900473ffffffffffffffffffffffffffffffffffffffff1673ffffffffffffffffffffffffffffffffffffffff163373ffffffffffffffffffffffffffffffffffffffff161461047a576040517f08c379a000000000000000000000000000000000000000000000000000000000815260040180806020018281038252602b815260200180611517602b913960400191505060405180910390fd5b8160068190555060019050919050565b60008060006104976114bd565b60026000868152602001908152602001600020604051806060016040529081600082015481526020016001820160009054906101000a900473ffffffffffffffffffffffffffffffffffffffff1673ffffffffffffffffffffffffffffffffffffffff1673ffffffffffffffffffffffffffffffffffffffff1681526020016001820160149054906101000a900460f81b7effffffffffffffffffffffffffffffffffffffffffffffffffffffffffffff19167effffffffffffffffffffffffffffffffffffffffffffffffffffffffffffff1916815250509050806000015193508060200151925080604001519150509193909250565b60065481565b600360009054906101000a900473ffffffffffffffffffffffffffffffffffffffff1681565b60008083905060008490506000846000602081106105d557fe5b1a60f81b90506000856000602081106105ea57fe5b1a60f81b90506004847effffffffffffffffffffffffffffffffffffffffffffffffffffffffffffff1916901c93506004847effffffffffffffffffffffffffffffffffffffffffffffffffffffffffffff1916901b93506004827effffffffffffffffffffffffffffffffffffffffffffffffffffffffffffff1916901c91506004827effffffffffffffffffffffffffffffffffffffffffffffffffffffffffffff1916901b91506004837effffffffffffffffffffffffffffffffffffffffffffffffffffffffffffff1916901b92506004837effffffffffffffffffffffffffffffffffffffffffffffffffffffffffffff1916901c92506004817effffffffffffffffffffffffffffffffffffffffffffffffffffffffffffff1916901b90506004817effffffffffffffffffffffffffffffffffffffffffffffffffffffffffffff1916901c9050837effffffffffffffffffffffffffffffffffffffffffffffffffffffffffffff1916827effffffffffffffffffffffffffffffffffffffffffffffffffffffffffffff19161480156107ce5750827effffffffffffffffffffffffffffffffffffffffffffffffffffffffffffff1916817effffffffffffffffffffffffffffffffffffffffffffffffffffffffffffff1916145b156107e0576001945050505050610890565b837effffffffffffffffffffffffffffffffffffffffffffffffffffffffffffff1916827effffffffffffffffffffffffffffffffffffffffffffffffffffffffffffff191614806108755750827effffffffffffffffffffffffffffffffffffffffffffffffffffffffffffff1916817effffffffffffffffffffffffffffffffffffffffffffffffffffffffffffff1916145b15610887576002945050505050610890565b60009450505050505b92915050565b60006108a182611003565b506108aa6108b3565b60019050919050565b6000806108be6114bd565b60008060015494505b600054851015610ff55760026000868152602001908152602001600020604051806060016040529081600082015481526020016001820160009054906101000a900473ffffffffffffffffffffffffffffffffffffffff1673ffffffffffffffffffffffffffffffffffffffff1673ffffffffffffffffffffffffffffffffffffffff1681526020016001820160149054906101000a900460f81b7effffffffffffffffffffffffffffffffffffffffffffffffffffffffffffff19167effffffffffffffffffffffffffffffffffffffffffffffffffffffffffffff19168152505092506109b983600001516111d4565b9150600060028111156109c857fe5b8260028111156109d457fe5b1415610e425760006109e98460000151611224565b90506109f98460400151826105bb565b915060016002811115610a0857fe5b826002811115610a1457fe5b1415610b6d57610a3384602001516611c37937e080006004540161124c565b945060006004819055507f8219079e2d6c1192fb0ff7f78e6faaf5528ad6687e69749205d87bd4b156912b86856020015187876040015185600060208110610a7757fe5b1a60f81b8960000151604051808781526020018673ffffffffffffffffffffffffffffffffffffffff1673ffffffffffffffffffffffffffffffffffffffff168152602001858152602001847effffffffffffffffffffffffffffffffffffffffffffffffffffffffffffff19167effffffffffffffffffffffffffffffffffffffffffffffffffffffffffffff19168152602001837effffffffffffffffffffffffffffffffffffffffffffffffffffffffffffff19167effffffffffffffffffffffffffffffffffffffffffffffffffffffffffffff19168152602001828152602001965050505050505060405180910390a15b60006002811115610b7a57fe5b826002811115610b8657fe5b1415610cd4576611c37937e080006004600082825401925050819055507f3b19d607433249d2ebc766ae82ca3848e9c064f1febb5147bc6e5b21d0adebc58685602001516000876040015185600060208110610bde57fe5b1a60f81b8960000151604051808781526020018673ffffffffffffffffffffffffffffffffffffffff1673ffffffffffffffffffffffffffffffffffffffff168152602001858152602001847effffffffffffffffffffffffffffffffffffffffffffffffffffffffffffff19167effffffffffffffffffffffffffffffffffffffffffffffffffffffffffffff19168152602001837effffffffffffffffffffffffffffffffffffffffffffffffffffffffffffff19167effffffffffffffffffffffffffffffffffffffffffffffffffffffffffffff19168152602001828152602001965050505050505060405180910390a15b600280811115610ce057fe5b826002811115610cec57fe5b1415610e4057610d0784602001516611c37937e0800061124c565b94507f72ec2e949e4fad9380f9d5db3e2ed0e71cf22c51d8d66424508bdc761a3f4b0e8685602001516611c37937e08000876040015185600060208110610d4a57fe5b1a60f81b8960000151604051808781526020018673ffffffffffffffffffffffffffffffffffffffff1673ffffffffffffffffffffffffffffffffffffffff168152602001858152602001847effffffffffffffffffffffffffffffffffffffffffffffffffffffffffffff19167effffffffffffffffffffffffffffffffffffffffffffffffffffffffffffff19168152602001837effffffffffffffffffffffffffffffffffffffffffffffffffffffffffffff19167effffffffffffffffffffffffffffffffffffffffffffffffffffffffffffff19168152602001828152602001965050505050505060405180910390a15b505b60016002811115610e4f57fe5b826002811115610e5b57fe5b1415610ece577fc97fced6b8c587b10b0aaaa8e261f6a7b816ef670bbfdb0794eb95ab5bc8332060405180806020018281038252600c8152602001807f4e6f742052657665616c6564000000000000000000000000000000000000000081525060200191505060405180910390a1610ff5565b600280811115610eda57fe5b826002811115610ee657fe5b1415610fde57610f0183602001516611c37937e0800061124c565b93507f59c0185881271a0f53d43e6ab9310091408f9e0ff9ae2512613de800f26b8de48584602001516611c37937e0800086604001518760000151604051808681526020018573ffffffffffffffffffffffffffffffffffffffff1673ffffffffffffffffffffffffffffffffffffffff168152602001848152602001837effffffffffffffffffffffffffffffffffffffffffffffffffffffffffffff19167effffffffffffffffffffffffffffffffffffffffffffffffffffffffffffff191681526020018281526020019550505050505060405180910390a15b610fe785611315565b5084806001019550506108c7565b846001819055505050505050565b60006611c37937e080003414611081576040517f08c379a000000000000000000000000000000000000000000000000000000000815260040180806020018281038252600e8152602001807f4e6f7420656e6f7567682045544800000000000000000000000000000000000081525060200191505060405180910390fd5b61108a82611379565b6110fc576040517f08c379a00000000000000000000000000000000000000000000000000000000081526004018080602001828103825260188152602001807f4661696c20746f20616464206e65772042657420496e666f000000000000000081525060200191505060405180910390fd5b7f100791de9f40bf2d56ffa6dc5597d2fd0b2703ea70bc7548cd74c04f5d215ab760016000540333348560034301604051808681526020018573ffffffffffffffffffffffffffffffffffffffff1673ffffffffffffffffffffffffffffffffffffffff168152602001848152602001837effffffffffffffffffffffffffffffffffffffffffffffffffffffffffffff19167effffffffffffffffffffffffffffffffffffffffffffffffffffffffffffff191681526020018281526020019550505050505060405180910390a160019050919050565b600081431180156111e85750816101000143105b156111f6576000905061121f565b814311611206576001905061121f565b6101008201431061121a576002905061121f565b600290505b919050565b6000600560009054906101000a900460ff1661124257600654611245565b81405b9050919050565b60008060009050600081840390508473ffffffffffffffffffffffffffffffffffffffff166108fc829081150290604051600060405180830381858888f193505050501580156112a0573d6000803e3d6000fd5b50600360009054906101000a900473ffffffffffffffffffffffffffffffffffffffff1673ffffffffffffffffffffffffffffffffffffffff166108fc839081150290604051600060405180830381858888f19350505050158015611309573d6000803e3d6000fd5b50809250505092915050565b6000600260008381526020019081526020016000206000808201600090556001820160006101000a81549073ffffffffffffffffffffffffffffffffffffffff02191690556001820160146101000a81549060ff0219169055505060019050919050565b60006113836114bd565b33816020019073ffffffffffffffffffffffffffffffffffffffff16908173ffffffffffffffffffffffffffffffffffffffff1681525050600343018160000181815250508281604001907effffffffffffffffffffffffffffffffffffffffffffffffffffffffffffff191690817effffffffffffffffffffffffffffffffffffffffffffffffffffffffffffff1916815250508060026000805481526020019081526020016000206000820151816000015560208201518160010160006101000a81548173ffffffffffffffffffffffffffffffffffffffff021916908373ffffffffffffffffffffffffffffffffffffffff16021790555060408201518160010160146101000a81548160ff021916908360f81c021790555090505060008081548092919060010191905055506001915050919050565b604051806060016040528060008152602001600073ffffffffffffffffffffffffffffffffffffffff16815260200160007effffffffffffffffffffffffffffffffffffffffffffffffffffffffffffff19168152509056fe4f6e6c79206f776e65722063616e207365742074686520616e7377657220666f722074657374206d6f6465a265627a7a723158200a8b46da2be0ffef791743aa9b634ceddb88196290c3aa88389c9922236d31ff64736f6c63430005100032",
  "source": "// SPDX-License-Identifier: MIT\npragma solidity >=0.4.22 <0.9.0;\n\ncontract Lottery {\n    struct BetInfo {\n        uint256 answerBlockNumber;\n        address payable bettor;\n        bytes1 challenges;\n    }\n\n    uint256 private _tail;\n    uint256 private _head;\n    mapping(uint256 => BetInfo) private _bets;\n\n    address payable public owner;\n\n    uint256 internal constant BET_BLOCK_LIMIT = 256;\n    uint256 internal constant BET_BLOCK_INTERVAL = 3;\n    uint256 internal constant BET_AMOUNT = 5 * 10**15;\n    uint256 private _pot;\n    bool private mode = false; // false : use answer for test, true : real block hash \n    bytes32 public answerForTest; \n\n    enum BettingResult { Fail, Win, Draw }\n    enum BlockStatus { Checkable, NotRevealed, BlockLimitPassed } \n\n    event BET(\n        uint256 index,\n        address bettor,\n        uint256 amount,\n        bytes1 challenges,\n        uint256 answerBlockNumber\n    );\n\n    event WIN(\n        uint256 index,\n        address bettor,\n        uint256 amount,\n        bytes1 challenges,\n        bytes1 answer,\n        uint256 answerBlockNumber\n    );\n    event FAIL(\n        uint256 index,\n        address bettor,\n        uint256 amount,\n        bytes1 challenges,\n        bytes1 answer,\n        uint256 answerBlockNumber\n    );\n    event DRAW(\n        uint256 index,\n        address bettor,\n        uint256 amount,\n        bytes1 challenges,\n        bytes1 answer,\n        uint256 answerBlockNumber\n    );\n    event REFUND(\n        uint256 index,\n        address bettor,\n        uint256 amount,\n        bytes1 challenges,\n        uint256 answerBlockNumber\n    );\n    event NOT_REVEALED(\n        string message\n    );\n    \n    constructor() public {\n        owner = msg.sender;\n    }\n\n    function getPot() public view returns (uint256 value) {\n        return _pot;\n    }\n\n    /**\n     * @dev bet and distribute function. \n     * @param challenges : 1 byte bet\n     * @return result represents function works properly\n     */\n    function betAndDistribute(byte challenges) public payable returns (bool result) {\n        bet(challenges);\n        distribute();\n        return true; \n    }\n\n    // bet\n    /**\n     * @dev bet function. user must send 0.005 eth and send 1 byte challenges\n     * @param challenges : 1 byte bet\n     * @return result which represents function works properly\n     */\n    function bet(bytes1 challenges) public payable returns (bool result) {\n        // check the proper ether amount is sent\n        require(msg.value == BET_AMOUNT, \"Not enough ETH\");\n\n        // push bet to the queue\n        require(pushBet(challenges), \"Fail to add new Bet Info\");\n\n        // emit event\n        emit BET(\n            _tail - 1,\n            msg.sender,\n            msg.value,\n            challenges,\n            block.number + BET_BLOCK_INTERVAL\n        );\n        return true;\n    }\n\n    /**\n     * @dev 베팅 결과값을 확인하고 팟 머니를 분배한다. \n     * 정답 실패 : 팟 머니 축적, 정답 성공 : 팟머니 획득, 한 글자 맞춤 or 정답 확인 불가: 배팅금액만 획득 \n     */\n    function distribute() public {\n        uint256 curr;\n        uint256 transferAmount;\n\n        BetInfo memory b;  \n        BlockStatus currBlockStatus; \n        BettingResult currBettingResult; \n\n        for(curr=_head; curr <_tail; curr++) {\n            b = _bets[curr];\n            currBlockStatus = getBlockStatus(b.answerBlockNumber);\n            // Checkable => 1\n            if(currBlockStatus == BlockStatus.Checkable) {\n                bytes32 answerBlockHash = getAnswerBlockHashNumber(b.answerBlockNumber);\n                currBettingResult = isMatch(b.challenges, answerBlockHash);\n                // if win, bettor gets popt\n                if(currBettingResult == BettingResult.Win) {\n                    // transfer pot \n                    transferAmount = transferAfterPayingFee(b.bettor, _pot + BET_AMOUNT);\n\n                    // pot = 0 \n                    _pot = 0; \n\n                    // emit win event\n                    emit WIN(curr, b.bettor, transferAmount, b.challenges, answerBlockHash[0], b.answerBlockNumber);\n                }\n\n                // if fail, bettor's money goes to pot \n                if(currBettingResult == BettingResult.Fail) {\n                    // pot += BET_AMOUNT\n                    _pot += BET_AMOUNT;\n\n                    // emit fail event \n                    emit FAIL(curr, b.bettor, 0, b.challenges, answerBlockHash[0], b.answerBlockNumber);\n                }\n\n                // if draw, refund bettor's money \n                if(currBettingResult == BettingResult.Draw) {\n                    // transfer only BET_AMOUNT \n                    transferAmount = transferAfterPayingFee(b.bettor, BET_AMOUNT);\n\n                    // emit draw event\n                    emit DRAW(curr, b.bettor, BET_AMOUNT, b.challenges, answerBlockHash[0], b.answerBlockNumber);\n                }\n            }\n            // Not revealed => 2\n            if(currBlockStatus == BlockStatus.NotRevealed) {\n                emit NOT_REVEALED('Not Revealed');\n                break;\n            }\n\n            // Block limit passed => 3\n            if(currBlockStatus == BlockStatus.BlockLimitPassed) {\n                // refund \n                transferAmount = transferAfterPayingFee(b.bettor, BET_AMOUNT);\n\n                // emit refund\n                emit REFUND(curr, b.bettor, BET_AMOUNT, b.challenges, b.answerBlockNumber);\n            }\n            popBet(curr);\n        } \n        _head = curr;\n    }\n\n    function transferAfterPayingFee(address payable addr, uint256 amount) internal returns (uint256) {\n        // uint256 fee = amount / 100;\n        uint256 fee = 0;\n        uint256 amountWithoutFee = amount - fee; \n\n        // transfer to addr\n        addr.transfer(amountWithoutFee);\n\n        // transfer to owner   \n        owner.transfer(fee);\n\n        return amountWithoutFee; \n    }\n\n    function setAnswerForTest(bytes32 answer) public returns (bool result) {\n        require(msg.sender == owner, \"Only owner can set the answer for test mode\");\n        answerForTest = answer;\n        return true;\n    }\n\n    function getAnswerBlockHashNumber(uint256 answerBlockNumber) internal view returns (bytes32 answer) {\n        return mode ? blockhash(answerBlockNumber) : answerForTest;\n    }\n\n    /**\n     * @dev check challenges with answer \n     * @param challenges : Character of Bet\n     * @param answer : block hash\n     * @return Betting Result\n     */\n    function isMatch(byte challenges, bytes32 answer) public pure returns (BettingResult) {\n        // challenges 0xab\n        // answer 0xab........ff 32 bytes\n\n        byte c1 = challenges; \n        byte c2 = challenges; \n\n        byte a1 = answer[0]; \n        byte a2 = answer[0];\n\n        // Get first number \n        c1 = c1 >> 4; // 0xab => 0x0a\n        c1 = c1 << 4; // 0x0a => 0xa0 \n        \n        a1 = a1 >> 4; // 0xab => 0x0a\n        a1 = a1 << 4; // 0x0a => 0xa0 \n\n        // Get Second number \n        c2 = c2 << 4; // 0xab => 0xb0 \n        c2 = c2 >> 4; // 0xb0 => 0x0b\n\n        a2 = a2 << 4; // 0xab => 0xb0 \n        a2 = a2 >> 4; // 0xb0 => 0x0b\n\n        if(a1 == c1 && a2 == c2) {\n            return BettingResult.Win;\n        }\n\n        if(a1 == c1 || a2 == c2) {\n            return BettingResult.Draw;\n        }\n        return BettingResult.Fail;\n    }\n\n    function getBlockStatus(uint256 answerBlockNumber) internal view returns (BlockStatus) {\n        if(block.number > answerBlockNumber && block.number < BET_BLOCK_LIMIT + answerBlockNumber) {\n            return BlockStatus.Checkable; \n        } else if(block.number <= answerBlockNumber) {\n            return BlockStatus.NotRevealed; \n        } else if(block.number >= answerBlockNumber + BET_BLOCK_LIMIT) {\n            return BlockStatus.BlockLimitPassed;\n        }\n        return BlockStatus.BlockLimitPassed;\n    }\n\n    function getBetInfo(uint256 index)\n        public\n        view\n        returns (\n            uint256 answerBlockNumber,\n            address bettor,\n            bytes1 challenges\n        )\n    {\n        BetInfo memory b = _bets[index];\n        answerBlockNumber = b.answerBlockNumber;\n        bettor = b.bettor;\n        challenges = b.challenges;\n    }\n\n    function pushBet(bytes1 challenges) internal returns (bool) {\n        BetInfo memory b;\n        b.bettor = msg.sender;\n        b.answerBlockNumber = block.number + BET_BLOCK_INTERVAL;\n        b.challenges = challenges;\n\n        _bets[_tail] = b;\n        _tail++;\n\n        return true;\n    }\n\n    function popBet(uint256 index) internal returns (bool) {\n        delete _bets[index];\n        return true;\n    }\n}\n",
  "sourcePath": "/Users/yeonbn88/eth/lottery_practice/lottery-smart-contract/contracts/Lottery.sol",
  "compiler": {
    "name": "solc",
    "version": "0.5.16+commit.9c3226ce.Emscripten.clang"
  },
  "schemaVersion": "3.4.1",
  "updatedAt": "2021-06-20T06:40:17.231Z",
  "devdoc": {
    "methods": {
      "bet(bytes1)": {
        "details": "bet function. user must send 0.005 eth and send 1 byte challenges",
        "params": {
          "challenges": ": 1 byte bet"
        },
        "return": "result which represents function works properly"
      },
      "betAndDistribute(bytes1)": {
        "details": "bet and distribute function. ",
        "params": {
          "challenges": ": 1 byte bet"
        },
        "return": "result represents function works properly"
      },
      "distribute()": {
        "details": "베팅 결과값을 확인하고 팟 머니를 분배한다.  정답 실패 : 팟 머니 축적, 정답 성공 : 팟머니 획득, 한 글자 맞춤 or 정답 확인 불가: 배팅금액만 획득 "
      },
      "isMatch(bytes1,bytes32)": {
        "details": "check challenges with answer ",
        "params": {
          "answer": ": block hash",
          "challenges": ": Character of Bet"
        },
        "return": "Betting Result"
      }
    }
  },
  "userdoc": {
    "methods": {}
  }
}